:020000040000FA
:020000000528D1
:040002000034003492
:080008006E288312B201B80159
:10001000C4010A30B500BF01C001C101C2010730EF
:1000200081008101AB30B10076207C200330A80034
:100030001030AB000130AC000330B000FF30B9002D
:10004000A900BB00B400B600B700BC00BD00BE00F4
:10005000CC20EB208030AA000130BA001E30B30063
:10006000C300AF008316003087008800F0308600A0
:1000700083128B178B150608A500B6207620B00BCF
:100080005328271A261E45281621A71AA61E4928D6
:100090001021271B261F4D280A21A71BA61F512808
:1000A0001C210330B000AF0B5C289020BF1BAA209E
:1000B000421867203308AF0022216721B20A40307E
:1000C0003202031964283E28B30BB2013E28B62041
:1000D000C2011030AB000130AC0008000608A600D9
:1000E0002506A7002608A5000B1009002F08B10659
:1000F000B10CB11BB83A08000108B106080082072C
:10010000FE34FD34FB34F734EF34DF34BF347F3456
:100110007E34BD34DB34FB34DF345B347F34BF34B6
:100120000310AA0C031895280800C40AC10A073056
:1001300041020319A220B10A76207C20CC20803015
:10014000AA000800B2018030BF000130C20043089D
:10015000B30008000310BA0C0318AF280800B10A56
:1001600076207C20EB208030BA0008000330B800F5
:1001700087018801BF1F7A21290887002A08880083
:100180007A21BF1BC620B80BB82808003A088700A0
:100190003B0888007A2108007C203530A100310816
:1001A0000F397F20A900290834020319E6282908FD
:1001B00036020319E628290837020319E62836080B
:1001C000B7003408B6002908B4000800A10BE928DC
:1001D000DF287620CF287C203530A10031080F3968
:1001E0007F20BB003B083C02031905293B083D0268
:1001F000031905293B083E02031905293D08BE00E5
:100200003C08BD003B08BC000800A10B0829FE28E3
:100210007620EE282B1C0D2908000310AB0C0800DB
:10022000AB1F132908000310AB0D08002C1C192963
:1002300008000310AC0C0800AC1F1F2908000310B5
:10024000AC0D0800C0013021BF1B3A214008031942
:1002500008002B210800C001A80B572946290800D7
:1002600029082B05031908002A082C050319080082
:10027000442108002B083A05031908002C083B0507
:100280000319080044210800C00A08002808C40215
:1002900087018801870988097E21870988097E21CD
:1002A000870988097E21870988097E210528103061
:1002B000AB000130AC0087018801870988098C21D7
:1002C000870988099520BF1BAF20B62008002B089E
:1002D00087002C0888008321290887002A088800C5
:1002E000BF1B74218321080083213A0887003B0843
:1002F000880008008C218C21832108008C218C210E
:100300008C218C210800FF30AD000A30AE00AE0B0E
:100310008729AD0B85290800FF30A100C330A2005A
:0A032000A20B9029A10B8E29080002
:02400E00313F40
:00000001FF
